:020000040800F2
:1000000000500020F5010008990100089F01000838
:10001000A5010008AB010008B101000800000000C4
:10002000000000000000000000000000B701000810
:10003000C301000800000000CF010008DB01000838
:100040003D0200083D0200083D0200083D02000894
:100050003D0200083D0200083D0200083D02000884
:100060003D0200083D0200083D0200083D02000874
:100070003D0200083D0200083D0200083D02000864
:100080003D0200083D0200083D0200083D02000854
:100090003D0200083D0200083D0200083D02000844
:1000A0003D0200083D0200083D0200083D02000834
:1000B0003D0200083D0200083D0200083D02000824
:1000C0003D0200083D0200083D0200083D02000814
:1000D0003D0200083D0200083D0200083D02000804
:1000E0003D0200083D0200083D020008000000003B
:1000F0000000000000000000000000000000000000
:0C01000000000000000000005FF808F1A3
:10010C0010B5054C237833B9044B13B10448AFF345
:10011C0000800123237010BD0400002000000000AB
:10012C00AC02000808B5034B1BB103490348AFF3FD
:10013C00008008BD0000000008000020AC02000890
:10014C0080B400AF0F4B9B690E4A43F010039361D0
:10015C000D4B5B680C4A43F4801353600A4B5B688D
:10016C00094A23F460035360074BDB68064A43F4E7
:10017C000053D360044BDB68034A23F40053D36071
:10018C00F2E700BF001002400010014080B400AF45
:10019C00FEE780B400AFFEE780B400AFFEE780B4AA
:1001AC0000AFFEE780B400AFFEE780B400AF00BF45
:1001BC00BD4680BC704780B400AF00BFBD4680BC5C
:1001CC00704780B400AF00BFBD4680BC704780B59F
:1001DC0000AF00F02FF800BF80BD80B400AF00BFAF
:1001EC00BD4680BC704700000C480D490D4A0023E9
:1001FC0002E0D458C4500433C4188C42F9D30A4AD0
:10020C000A4C002301E013600432A242FBD3FFF737
:10021C00E4FF00F021F8FFF793FF70470000002087
:10022C0004000020CC020008040000202400002060
:10023C00FEE7000080B400AF054B1B781A46054B57
:10024C001B681344034A136000BFBD4680BC704753
:10025C00000000202000002070B500260C4D0D4C35
:10026C00641BA410A64209D100F01AF800260A4D0E
:10027C000A4C641BA410A64205D170BD55F8043B72
:10028C0098470136EEE755F8043B98470136F2E7FC
:10029C00C4020008C4020008C4020008C802000816
:1002AC00F8B500BFF8BC08BC9E467047F8B500BF57
:0802BC00F8BC08BC9E46704727
:0402C40031010008FC
:0402C8000D0100081C
:0402CC00010000002D
:04000005080001F5F9
:00000001FF
