:020000040800F2
:1000000000000220CD020008F5010008F7010008F9
:10001000F9010008FB010008FD01000800000000D4
:10002000000000000000000000000000FF010008C8
:100030000102000800000000030200080502000899
:100040001D0300081D0300081D0300081D03000810
:100050001D0300081D0300081D0300081D03000800
:100060001D0300081D0300081D0300081D030008F0
:100070001D0300081D0300081D0300081D030008E0
:100080001D0300081D0300081D03000800000000F8
:100090000000000000000000000000001D03000838
:1000A0001D0300081D0300081D0300081D030008B0
:1000B0001D0300081D0300081D0300081D030008A0
:1000C0001D0300081D0300081D0300081D03000890
:1000D0001D0300081D0300081D03000800000000A8
:1000E0001D0300081D0300081D0300080000000098
:1000F0000000000000000000000000001D030008D8
:10010000000000001D0300081D0300081D03000877
:1001100000000000000000000000000000000000DF
:100120001D0300081D0300081D0300081D0300082F
:100130001D03000800000000000000000000000097
:100140000000000000000000000000001D03000887
:100150001D0300081D0300081D0300081D030008FF
:100160001D0300081D03000800000000000000003F
:10017000000000000000000000000000000000007F
:10018000000000001D030008000000000000000047
:080190001D0300081D03000817
:1001980010B5054C237833B9044B13B10448AFF3B9
:1001A80000800123237010BD04000020000000001F
:1001B8008003000808B5034B1BB103490348AFF39C
:1001C800008008BD0000000008000020800300082F
:1001D80008B500F01FF800F04DF8034B1A699207B4
:1001E800FCD55A6BFAE700BF00040040FEE7FEE7C3
:1001F800FEE7FEE7FEE770477047704700F08CB8EF
:10020800034AD2F8883043F47003C2F88830704744
:1002180000ED00E0154A136B43F001031363144B20
:10022800196841F400611960196821F48061196046
:10023800196A41F480111962136C43F001031364C5
:100248004FF0804340F23F629A6242F20F72DA62E4
:1002580030229A611A6A42F001021A6200225A6236
:100268001A6842F001021A60704700BF0038024065
:1002780000000240104A136B43F0010313630F4B55
:10028800196841F400511960196821F48051196006
:10029800196A41F000711962136C43F00203136488
:1002A800074B43F67F629A629A6942F001029A61AB
:1002B80001221A621A6070470038024000000240AA
:1002C80000040040DFF834D00D480E490E4A0023E0
:1002D80002E0D458C4500433C4188C42F9D30B4AF2
:1002E8000B4C002301E013600432A242FBD3FFF75A
:1002F80087FF00F01DF8FFF76BFF70470000022032
:100308000000002004000020A003000804000020D2
:1003180024000020FEE70000034A044B11681B7804
:100328000B441360704700BF20000020000000202D
:1003380070B50D4D0D4C641BA4100026A64209D1C2
:100348000B4D0C4C00F018F8641BA4100026A642B4
:1003580005D170BD55F8043B98470136EEE755F8CE
:10036800043B98470136F2E7980300089803000811
:10037800980300089C030008F8B500BFF8BC08BC47
:100388009E467047F8B500BFF8BC08BC9E4670474B
:04039800BD0100089B
:04039C0099010008BB
:0403A0000100000058
:04000005080002CD20
:00000001FF
