:020000040800F2
:100000000000022065030008EB020008F10200086E
:10001000F7020008FD0200080303000800000000CA
:1000200000000000000000000000000009030008BC
:100030001703000800000000250300083303000830
:10004000B5030008B5030008B5030008B5030008B0
:10005000B5030008B5030008B5030008B5030008A0
:10006000B5030008B5030008B5030008B503000890
:10007000B5030008B5030008B5030008B503000880
:10008000B5030008B5030008B50300080000000030
:10009000000000000000000000000000B5030008A0
:1000A000B5030008B5030008B5030008B503000850
:1000B000B5030008B5030008B5030008B503000840
:1000C000B5030008B5030008B5030008B503000830
:1000D000B5030008B5030008B503000800000000E0
:1000E000B5030008B5030008B503000800000000D0
:1000F000000000000000000000000000B503000840
:1001000000000000B5030008B5030008B5030008AF
:1001100000000000000000000000000000000000DF
:10012000B5030008B5030008B5030008B5030008CF
:10013000B5030008000000000000000000000000FF
:10014000000000000000000000000000B5030008EF
:10015000B5030008B5030008B5030008B50300089F
:10016000B5030008B503000800000000000000000F
:10017000000000000000000000000000000000007F
:1001800000000000B50300080000000000000000AF
:08019000B5030008B5030008E7
:1001980010B5054C237833B9044B13B10448AFF3B9
:1001A80000800123237010BD04000020000000001F
:1001B8002804000808B5034B1BB103490348AFF3F3
:1001C800008008BD00000000080000202804000886
:1001D80080B500AF00F020F8024B184600F004F894
:1001E800FAE700BF4004000880B483B000AF78602D
:1001F80000BF084B1B6803F08003002BF9D07B6815
:10020800044ADBB2536000BF0C37BD465DF8047B7F
:10021800704700BF0044004080B500AF1A4B1B6B0D
:10022800194A43F001031363184B1B68174A23F05C
:1002380010031360154B1B68144A43F02003136026
:10024800124B1B6A114A43F4E06313620F4B1B6A9B
:100258000E4A23F4006313620B4B1B6C0A4A43F4E7
:10026800003313644FF4E13209490A4800F014F8E6
:10027800084B0822DA60074BDB68064A43F4005350
:10028800D36000BF80BD00BF0038024000000240BC
:100298000024F4000044004080B584B000AFF8604A
:1002A800B9607A607968B86800F008F803461A46B9
:1002B800FB689A6000BF1037BD4680BD80B483B02C
:1002C80000AF786039603B685A087B681A443B681D
:1002D800B2FBF3F39BB218460C37BD465DF8047BBE
:1002E800704780B400AFFEE780B400AFFEE780B48B
:1002F80000AFFEE780B400AFFEE780B400AFFEE7D2
:1003080080B400AF00BFBD465DF8047B704780B481
:1003180000AF00BFBD465DF8047B704780B400AFF6
:1003280000BFBD465DF8047B704780B500AF00F0A4
:100338003FF800BF80BD000080B400AF064BD3F883
:100348008830054A43F47003C2F8883000BFBD46C0
:100358005DF8047B704700BF00ED00E0DFF834D0A3
:100368000D480E490E4A002302E0D458C450043305
:10037800C4188C42F9D30B4A0B4C002301E01360DC
:100388000432A242FBD3FFF7D7FF00F025F8FFF7AE
:100398001FFF70470000022000000020040000201A
:1003A8004C0400080400002024000020FEE70000A0
:1003B80080B400AF064B1B781A46064B1B681344E3
:1003C800044A136000BFBD465DF8047B704700BF58
:1003D800000000202000002070B50D4D0D4C641B5E
:1003E800A4100026A64209D10B4D0C4C00F018F8B9
:1003F800641BA4100026A64205D170BD55F8043B25
:1004080098470136EEE755F8043B98470136F2E77E
:100418004404000844040008440400084804000890
:10042800F8B500BFF8BC08BC9E467047F8B500BFD9
:08043800F8BC08BC9E467047A9
:040440004100000077
:04044400BD010008EE
:04044800990100080E
:04044C0001000000AB
:040000050800036587
:00000001FF
