:020000040800F2
:1000000000000220E502000835020008370200085F
:10001000390200083B0200083D0200080000000011
:100020000000000000000000000000003F02000887
:1000300041020008000000004302000845020008D9
:1000400035030008350300083503000835030008B0
:1000500035030008350300083503000835030008A0
:100060003503000835030008350300083503000890
:100070003503000835030008350300083503000880
:1000800035030008350300083503000800000000B0
:100090000000000000000000000000003503000820
:1000A0003503000835030008350300083503000850
:1000B0003503000835030008350300083503000840
:1000C0003503000835030008350300083503000830
:1000D0003503000835030008050200080000000091
:1000E0003503000835030008350300080000000050
:1000F00000000000000000000000000035030008C0
:10010000000000003503000835030008350300082F
:1001100000000000000000000000000000000000DF
:1001200035030008350300083503000835030008CF
:10013000350300080000000000000000000000007F
:10014000000000000000000000000000350300086F
:10015000350300083503000835030008350300089F
:10016000350300083503000800000000000000000F
:10017000000000000000000000000000000000007F
:10018000000000003503000800000000000000002F
:080190003503000835030008E7
:1001980010B5054C237833B9044B13B10448AFF3B9
:1001A80000800123237010BD04000020000000001F
:1001B8009803000808B5034B1BB103490348AFF384
:1001C800008008BD00000000080000209803000817
:1001D800084A08B5136B43F001031363064B1A680A
:1001E80042F480621A601A6822F400621A6000F011
:1001F80031F8FEE70038024000000240084B1A6858
:1002080092060CD55B68074ADBB21370312B064B9C
:100218005A690CBF42F0200222F020025A6170474E
:10022800004400402000002000000240FEE7FEE7F6
:10023800FEE7FEE7FEE770477047704700F078B8C2
:10024800034AD2F8883043F47003C2F88830704704
:1002580000ED00E01D4A136B43F0010313631C4BD0
:10026800196821F010011960196841F0200119601E
:10027800196A41F4E0611962196A21F4006119628E
:10028800196821F040011960196841F0800119606E
:10029800196A41F4E0411962196A21F400411962AE
:1002A800136C43F4003313640A4B8B229A600C22BC
:1002B800DA60DA6842F02002DA60074A40215160C9
:1002C800DA6842F40052DA60704700BF0038024032
:1002D800000002400044004000E100E0DFF834D0B4
:1002E8000D480E490E4A002302E0D458C450043386
:1002F800C4188C42F9D30B4A0B4C002301E013605D
:100308000432A242FBD3FFF79BFF00F01DF8FFF772
:100318005FFF70470000022000000020040000205A
:10032800B80300080400002028000020FEE70000B1
:10033800034A044B11681B780B441360704700BFD5
:10034800240000200000002070B50D4D0D4C641BEA
:10035800A4100026A64209D10B4D0C4C00F018F849
:10036800641BA4100026A64205D170BD55F8043BB5
:1003780098470136EEE755F8043B98470136F2E70F
:10038800B0030008B0030008B0030008B403000875
:10039800F8B500BFF8BC08BC9E467047F8B500BF6A
:0803A800F8BC08BC9E4670473A
:0403B000BD01000883
:0403B40099010008A3
:0403B8000100000040
:04000005080002E508
:00000001FF
