:020000040800F2
:10000000000002207D020008550200085702000887
:10001000590200085B0200085D02000800000000B1
:100020000000000000000000000000005F02000867
:100030006102000800000000630200086502000879
:10004000CD020008CD020008CD020008CD02000854
:10005000CD020008CD020008CD020008CD02000844
:10006000CD020008CD020008CD020008CD02000834
:10007000CD020008CD020008CD020008CD02000824
:10008000CD020008CD020008CD02000800000000EB
:10009000000000000000000000000000CD02000889
:1000A000CD020008CD020008CD020008CD020008F4
:1000B000CD020008CD020008CD020008CD020008E4
:1000C000CD020008CD020008CD020008CD020008D4
:1000D000CD020008CD020008CD020008000000009B
:1000E000CD020008CD020008CD020008000000008B
:1000F000000000000000000000000000CD02000829
:1001000000000000CD020008CD020008CD0200086A
:1001100000000000000000000000000000000000DF
:10012000CD020008CD020008CD020008CD02000873
:10013000CD020008000000000000000000000000E8
:10014000000000000000000000000000CD020008D8
:10015000CD020008CD020008CD020008CD02000843
:10016000CD020008CD0200080000000000000000E1
:10017000000000000000000000000000000000007F
:1001800000000000CD020008000000000000000098
:08019000CD020008CD020008B9
:1001980010B5054C237833B9044B13B10448AFF3B9
:1001A80000800123237010BD04000020000000001F
:1001B8003003000808B5034B1BB103490348AFF3EC
:1001C800008008BD0000000008000020300300087F
:1001D800034B1A681206FCD5C0B25860704700BFBE
:1001E80000440040114A136B43F001031363104BA2
:1001F800196821F010011960196841F0200119608F
:10020800196A41F4E0611962196A21F400611962FE
:10021800136C43F400331364064B8B229A60082254
:10022800DA60DA6842F40052DA6070470038024057
:10023800000002400044004008B5FFF7D3FF024920
:100248000846FFF7C5FFFBE748030008FEE7FEE79F
:10025800FEE7FEE7FEE770477047704700F034B8E6
:10026800034AD2F8883043F47003C2F888307047E4
:1002780000ED00E0DFF834D00D480E490E4A0023A7
:1002880002E0D458C4500433C4188C42F9D30B4A42
:100298000B4C002301E013600432A242FBD3FFF7AA
:1002A800DFFF00F01DF8FFF7C7FF704700000220CE
:1002B800000000200400002054030008040000206F
:1002C80024000020FEE70000034A044B11681B7855
:1002D8000B441360704700BF20000020000000207E
:1002E80070B50D4D0D4C641BA4100026A64209D113
:1002F8000B4D0C4C00F018F8641BA4100026A64205
:1003080005D170BD55F8043B98470136EEE755F81E
:10031800043B98470136F2E74C0300084C030008F9
:100328004C03000850030008F8B500BFF8BC08BC2F
:100338009E467047F8B500BFF8BC08BC9E4670479B
:040348004100000070
:04034C00BD010008E7
:040350009901000807
:0403540001000000A4
:040000050800027D70
:00000001FF
