:020000040800F2
:100000000000022041040008810200088702000865
:100010008D02000893020008990200080000000009
:100020000000000000000000000000009F02000827
:10003000AD02000800000000BB020008C902000871
:10004000910400089104000891040008910400083C
:10005000910400089104000891040008910400082C
:10006000910400089104000891040008910400081C
:10007000910400089104000891040008910400080C
:100080009104000891040008910400080000000099
:1000900000000000000000000000000091040008C3
:1000A00091040008910400089104000891040008DC
:1000B00091040008910400089104000891040008CC
:1000C00091040008910400089104000891040008BC
:1000D0009104000891040008650200080000000077
:1000E0009104000891040008910400080000000039
:1000F0000000000000000000000000009104000863
:100100000000000091040008910400089104000818
:1001100000000000000000000000000000000000DF
:10012000910400089104000891040008910400085B
:100130009104000800000000000000000000000022
:100140000000000000000000000000009104000812
:10015000910400089104000891040008910400082B
:100160009104000891040008000000000000000055
:10017000000000000000000000000000000000007F
:1001800000000000910400080000000000000000D2
:0801900091040008910400082D
:1001980010B5054C237833B9044B13B10448AFF3B9
:1001A80000800123237010BD04000020000000001F
:1001B8000405000808B5034B1BB103490348AFF316
:1001C800008008BD000000000800002004050008A9
:1001D80080B500AF0A4B1B6B094A43F00103136358
:1001E800084B1B68074A43F480631360054B1B6880
:1001F800044A23F40063136000F098F8FEE700BF98
:10020800003802400000024080B483B000AF104BB9
:100218005B68DAB20F4B1A7000237B600D4B1B78BA
:10022800612B06D10C4B5B690B4A43F020035361E9
:1002380005E0094B5B69084A23F0200353617B689A
:1002480001337B6000BF0C37BD465DF8047B704707
:1002580000440040200000200000024080B500AFAC
:10026800044B1B6803F02003002B01D0FFF7CCFFE1
:1002780000BF80BD0044004080B400AFFEE780B4FA
:1002880000AFFEE780B400AFFEE780B400AFFEE742
:1002980080B400AFFEE780B400AF00BFBD465DF894
:1002A800047B704780B400AF00BFBD465DF8047B97
:1002B800704780B400AF00BFBD465DF8047B70474F
:1002C80080B500AF00F0E2F800BF80BD80B400AF99
:1002D800064BD3F88830054A43F47003C2F88830D7
:1002E80000BFBD465DF8047B704700BF00ED00E02D
:1002F80080B483B000AF0346FB7197F90730002B39
:100308000BDBFB7903F01F02074997F907305B09FC
:10031800012000FA02F241F8232000BF0C37BD4645
:100328005DF8047B704700BF00E100E080B500AFD6
:100338002A4B1B6B294A43F001031363284B1B68A4
:10034800274A23F010031360254B1B68244A43F007
:1003580020031360224B1B6A214A43F4E0631362B3
:100368001F4B1B6A1E4A23F4006313621C4B1B6855
:100378001B4A23F040031360194B1B68184A43F0CB
:1003880080031360164B1B6A154A43F4E04313625B
:10039800134B1B6A124A23F4004313620F4B1B6C66
:1003A8000E4A43F4003313644FF4E1320D490E480A
:1003B80000F01CF80C4B0C22DA600B4BDB680A4A85
:1003C80043F02003D3602620FFF792FF064BDB683B
:1003D800054A43F40053D36000BF80BD0038024093
:1003E800000002400024F4000044004080B584B0BE
:1003F80000AFF860B9607A607968B86800F008F80A
:1004080003461A46FB689A6000BF1037BD4680BD98
:1004180080B483B000AF786039603B685A087B6865
:100428001A443B68B2FBF3F39BB218460C37BD463F
:100438005DF8047B70470000DFF834D00D480E49A2
:100448000E4A002302E0D458C4500433C4188C4226
:10045800F9D30B4A0B4C002301E013600432A2428B
:10046800FBD3FFF733FF00F025F8FFF7B1FE704725
:1004780000000220000000200400002024050008DD
:100488000400002028000020FEE7000080B400AF30
:10049800064B1B781A46064B1B681344044A136024
:1004A80000BFBD465DF8047B704700BF0000002018
:1004B8002400002070B50D4D0D4C641BA4100026BF
:1004C800A64209D10B4D0C4C00F018F8641BA4107F
:1004D8000026A64205D170BD55F8043B9847013661
:1004E800EEE755F8043B98470136F2E71C0500088B
:1004F8001C0500081C05000820050008F8B500BF09
:10050800F8BC08BC9E467047F8B500BFF8BC08BCEC
:040518009E46704744
:04051C00BD01000815
:040520009901000835
:0405240001000000D2
:0400000508000441AA
:00000001FF
