:020000040800F2
:100000000000022091020008190200081F020008E7
:10001000250200082B020008310200080000000041
:10002000000000000000000000000000370200088F
:1000300045020008000000005302000861020008A9
:10004000E1020008E1020008E1020008E102000804
:10005000E1020008E1020008E1020008E1020008F4
:10006000E1020008E1020008E1020008E1020008E4
:10007000E1020008E1020008E1020008E1020008D4
:10008000E1020008E1020008E102000800000000AF
:10009000000000000000000000000000E102000875
:1000A000E1020008E1020008E1020008E1020008A4
:1000B000E1020008E1020008E1020008E102000894
:1000C000E1020008E1020008E1020008E102000884
:1000D000E1020008E1020008E1020008000000005F
:1000E000E1020008E1020008E1020008000000004F
:1000F000000000000000000000000000E102000815
:1001000000000000E1020008E1020008E10200082E
:1001100000000000000000000000000000000000DF
:10012000E1020008E1020008E1020008E102000823
:10013000E1020008000000000000000000000000D4
:10014000000000000000000000000000E1020008C4
:10015000E1020008E1020008E1020008E1020008F3
:10016000E1020008E10200080000000000000000B9
:10017000000000000000000000000000000000007F
:1001800000000000E1020008000000000000000084
:08019000E1020008E102000891
:1001980010B5054C237833B9044B13B10448AFF3B9
:1001A80000800123237010BD04000020000000001F
:1001B8005403000808B5034B1BB103490348AFF3C8
:1001C800008008BD0000000008000020540300085B
:1001D80080B400AF0C4B1B6B0B4A43F00403136352
:1001E8000A4B1B68094A43F080631360074B5B693D
:1001F800064A23F400535361044B5B69034A43F4F2
:1002080000535361F2E700BF003802400008024083
:1002180080B400AFFEE780B400AFFEE780B400AF63
:10022800FEE780B400AFFEE780B400AFFEE780B41D
:1002380000AF00BFBD465DF8047B704780B400AFD7
:1002480000BFBD465DF8047B704780B400AF00BFB7
:10025800BD465DF8047B704780B500AF00F03EF8FE
:1002680000BF80BD80B400AF064BD3F88830054A84
:1002780043F47003C2F8883000BFBD465DF8047BC4
:10028800704700BF00ED00E0DFF834D00D480E499C
:100298000E4A002302E0D458C4500433C4188C42D8
:1002A800F9D30B4A0B4C002301E013600432A2423D
:1002B800FBD3FFF7D7FF00F025F8FFF789FF70475A
:1002C8000000022000000020040000207403000841
:1002D8000400002024000020FEE7000080B400AFE6
:1002E800064B1B781A46064B1B681344044A1360D6
:1002F80000BFBD465DF8047B704700BF00000020CA
:100308002000002070B50D4D0D4C641BA410002674
:10031800A64209D10B4D0C4C00F018F8641BA41030
:100328000026A64205D170BD55F8043B9847013612
:10033800EEE755F8043B98470136F2E76C030008EE
:100348006C0300086C03000870030008F8B500BFD0
:10035800F8BC08BC9E467047F8B500BFF8BC08BC9E
:040368009E467047F6
:04036C00BD010008C7
:0403700099010008E7
:040374000100000084
:04000005080002915C
:00000001FF
