:020000040800F2
:100000000000022091020008FD010008FF01000825
:1000100001020008030200080502000800000000B9
:1000200000000000000000000000000007020008BF
:1000300009020008000000000B0200080D02000881
:10004000E1020008E1020008E1020008E102000804
:10005000E1020008E1020008E1020008E1020008F4
:10006000E1020008E1020008E1020008E1020008E4
:10007000E1020008E1020008E1020008E1020008D4
:10008000E1020008E1020008E102000800000000AF
:10009000000000000000000000000000E102000875
:1000A000E1020008E1020008E1020008E1020008A4
:1000B000E1020008E1020008E1020008E102000894
:1000C000E1020008E1020008E1020008E102000884
:1000D000E1020008E1020008E1020008000000005F
:1000E000E1020008E1020008E1020008000000004F
:1000F000000000000000000000000000E102000815
:1001000000000000E1020008E1020008E10200082E
:1001100000000000000000000000000000000000DF
:10012000E1020008E1020008E1020008E102000823
:10013000E1020008000000000000000000000000D4
:10014000000000000000000000000000E1020008C4
:10015000E1020008E1020008E1020008E1020008F3
:10016000E1020008E10200080000000000000000B9
:10017000000000000000000000000000000000007F
:1001800000000000E1020008000000000000000084
:08019000E1020008E102000891
:1001980010B5054C237833B9044B13B10448AFF3B9
:1001A80000800123237010BD04000020000000001F
:1001B8004403000808B5034B1BB103490348AFF3D8
:1001C800008008BD0000000008000020440300086B
:1001D80038B500F023F846F62A05002420460134F5
:1001E80000F04CF8AC42F9D1204600F047F8013C49
:1001F800FAD1F2E7FEE7FEE7FEE7FEE7FEE7704723
:100208007047704700F06AB8034AD2F8883043F460
:100218007003C2F88830704700ED00E0154A136B90
:1002280043F001031363144B196841F4006119602A
:10023800196821F480611960196A41F48011196202
:10024800136C43F0010313644FF0804309229A6250
:1002580046F62A02DA6200225A629A6942F060027D
:100268009A611A6A42F001021A621A6842F001029F
:100278001A60704700380240000002404FF0804387
:100288000138586370470000DFF834D00D480E4934
:100298000E4A002302E0D458C4500433C4188C42D8
:1002A800F9D30B4A0B4C002301E013600432A2423D
:1002B800FBD3FFF7A9FF00F01DF8FFF789FF704790
:1002C8000000022000000020040000206403000851
:1002D8000400002024000020FEE70000034A044B2D
:1002E80011681B780B441360704700BF2000002082
:1002F8000000002070B50D4D0D4C641BA4100026A5
:10030800A64209D10B4D0C4C00F018F8641BA41040
:100318000026A64205D170BD55F8043B9847013622
:10032800EEE755F8043B98470136F2E75C0300080E
:100338005C0300085C03000860030008F8B500BF10
:10034800F8BC08BC9E467047F8B500BFF8BC08BCAE
:040358009E46704706
:04035C00BD010008D7
:0403600099010008F7
:040364000100000094
:04000005080002915C
:00000001FF
