:020000040800F2
:100000000000022069020008E1010008E301000885
:10001000E5010008E7010008E90100080000000010
:10002000000000000000000000000000EB010008DC
:10003000ED01000800000000EF010008F1010008D8
:10004000B9020008B9020008B9020008B9020008A4
:10005000B9020008B9020008B9020008B902000894
:10006000B9020008B9020008B9020008B902000884
:10007000B9020008B9020008B9020008B902000874
:10008000B9020008B9020008B90200080000000027
:10009000000000000000000000000000B90200089D
:1000A000B9020008B9020008B9020008B902000844
:1000B000B9020008B9020008B9020008B902000834
:1000C000B9020008B9020008B9020008B902000824
:1000D000B9020008B9020008B902000800000000D7
:1000E000B9020008B9020008B902000800000000C7
:1000F000000000000000000000000000B90200083D
:1001000000000000B9020008B9020008B9020008A6
:1001100000000000000000000000000000000000DF
:10012000B9020008B9020008B9020008B9020008C3
:10013000B9020008000000000000000000000000FC
:10014000000000000000000000000000B9020008EC
:10015000B9020008B9020008B9020008B902000893
:10016000B9020008B9020008000000000000000009
:10017000000000000000000000000000000000007F
:1001800000000000B90200080000000000000000AC
:08019000B9020008B9020008E1
:1001980010B5054C237833B9044B13B10448AFF3B9
:1001A80000800123237010BD04000020000000001F
:1001B8001C03000808B5034B1BB103490348AFF300
:1001C800008008BD00000000080000201C03000893
:1001D80008B500F015F8FEE7FEE7FEE7FEE7FEE7E4
:1001E800FEE770477047704700F064B8034AD2F8DA
:1001F800883043F47003C2F88830704700ED00E09F
:10020800154A136B43F001031363144B196841F447
:1002180000611960196821F480611960196A41F454
:1002280080111962136C43F0010313644FF080438B
:1002380040F23F629A6242F20F72DA6230229A61A9
:100248001A6A42F001021A6200225A621A6842F0DF
:1002580001021A60704700BF0038024000000240E7
:10026800DFF834D00D480E490E4A002302E0D45876
:10027800C4500433C4188C42F9D30B4A0B4C0023E6
:1002880001E013600432A242FBD3FFF7AFFF00F096
:100298001DF8FFF79DFF70470000022000000020B6
:1002A800040000203C030008040000202400002073
:1002B800FEE70000034A044B11681B780B441360E7
:1002C800704700BF200000200000002070B50D4DD1
:1002D8000D4C641BA4100026A64209D10B4D0C4CF2
:1002E80000F018F8641BA4100026A64205D170BDC2
:1002F80055F8043B98470136EEE755F8043B984714
:100308000136F2E734030008340300083403000818
:1003180038030008F8B500BFF8BC08BC9E46704713
:0C032800F8B500BFF8BC08BC9E4670474A
:04033400BD010008FF
:04033800990100081F
:04033C0001000000BC
:040000050800026984
:00000001FF
